:020000040800F2
:1000000070080020890100083F220008C91F00086D
:100010003D2200089D030008BD28000800000000E4
:100020000000000000000000000000006323000842
:100030009F030008000000006123000865230008FA
:10004000A3010008A3010008A3010008A301000800
:10005000A3010008A3010008A3010008A3010008F0
:10006000A3010008A3010008A3010008A3010008E0
:10007000A3010008A3010008A3010008A3010008D0
:10008000A3010008A301000891020008A3010008D1
:10009000A3010008A3010008A3010008A3010008B0
:1000A000A3010008A3010008A3010008A3010008A0
:1000B000E5230008A3010008A3010008A30100082C
:1000C000A3010008A3010008A3010008A301000880
:1000D000A3010008A3010008B1280008A30100083B
:1000E000A3010008A3010008A301000800F002F822
:1000F00000F03AF80AA090E8000C82448344AAF188
:100100000107DA4501D100F02FF8AFF2090EBAE885
:100110000F0013F0010F18BFFB1A43F0010318473B
:10012000DC390000FC390000103A24BF78C878C1DF
:10013000FAD8520724BF30C830C144BF04680C60ED
:10014000704700000023002400250026103A28BF35
:1001500078C1FBD8520728BF30C148BF0B60704739
:100160001FB51FBD10B510BD00F058F81146FFF7C0
:10017000F7FF02F0DBFB00F076F803B4FFF7F2FFC5
:1001800003BC00F07DF8000009488047094800479B
:10019000FEE7FEE7FEE7FEE7FEE7FEE7FEE7FEE737
:1001A000FEE7FEE704480549054A064B7047000094
:1001B000E1230008ED000008700200207008002014
:1001C00070040020700400204FF0000200B51346B8
:1001D00094469646203922BFA0E80C50A0E80C5067
:1001E000B1F12001BFF4F7AF090728BFA0E80C5018
:1001F00048BF0CC05DF804EB890028BF40F8042B11
:1002000008BF704748BF20F8022B11F0804F18BF7D
:1002100000F8012B7047704770477047754600F033
:100220002BF8AE4605006946534620F00700854688
:1002300018B020B5FFF7B6FFBDE820404FF000062C
:100240004FF000074FF000084FF0000B21F00701BE
:10025000AC46ACE8C009ACE8C009ACE8C009ACE801
:10026000C0098D46704710B50446AFF300802046A4
:10027000BDE81040FFF781BF004870470C02002026
:1002800001491820ABBEFEE72600020070470000BF
:10029000014800F03AB90000BC00002070B50446E7
:1002A00000688168C943C90717D1816821F001013D
:1002B000816000F0CBFB05460AE000BF00F0C6FB02
:1002C000401B022804D920688068C043C00706D0BC
:1002D00020688068C043C007F0D0002070BDA06ACD
:1002E00040F01000A062E06A40F00100E0620120EE
:1002F00070BD00002DE9F05F00250C462946A94697
:10030000AB46234A02E0435C5354491CA142FADB4A
:10031000DFF880A000269046701918F800002D28FC
:1003200000D10125771918F807002E2810D0303891
:1003300003F0BAF907465146484603F0E1F9394659
:1003400003F06CF88146761C7019A042E4DB12E0E1
:10035000114E0DE018F8040003F0BEF9594603F001
:100360005DF8314603F0A2FA514603F0BFF8834628
:10037000641EA742EEDB594648462DB103F04EF805
:1003800080F00040BDE8F09FBDE8F05F03F046B8A4
:10039000540000200000204100004042FEE770476A
:1003A00070470000F8B50024009490F824202546FA
:1003B000012A12D0012280F824204A681F23072A2C
:1003C0000DD20668776B521E02EB820293409F4368
:1003D0000B6893401F43776319E00220F8BD06685D
:1003E0000D2A0AD2376BD21F02EB820293409F4341
:1003F0000B6893401F43376309E0F76A0D3A02EB3D
:10040000820293409F430B6893401F43F7620A6840
:10041000072306680A2A0AD3F7680A3A02EB42025F
:1004200093409F438B6893401F43F76008E0376910
:1004300002EB420293409F438B6893401F43376116
:100440000A68102A01D0112A20D1124B02689A4260
:1004500017D193681B0219D4936843F40003936087
:100460000968102912D10C490C4A0968B1FBF2F154
:1004700001EB8101490000E0491E00910029FBD1F8
:1004800004E0816A41F020018162012480F8245057
:100490002046F8BD002401406800002040420F00C3
:1004A00010B500680F4988421AD10F4800F02AF8A9
:1004B0000E4C80B2608002F089FD4FF066320C4B2A
:1004C00002F098FD00220B4B02F0E2FB0A4A0B4BB4
:1004D00002F08EFE02F0FAFA094903F011F9E06227
:1004E00010BD000000240140BC00002000000020DE
:1004F00066660A4000FEAF4014AE47E17A1404403D
:100500000000E0400068C06C704770B504460068A9
:1005100006684568A90625D5B10723D5A16AC9068D
:1005200003D4A16A41F40071A1628168C1F3424120
:10053000072910D1217B71B9416821F02001416068
:10054000A06A20F48070A062A06AC00403D4A06AEC
:1005500040F00100A0622046FFF7A2FF21686FF083
:100560001200086028062ED570072CD5A06AC00698
:1005700003D4A06A40F40050A06220688168C1F3EF
:100580000231072909D04168490515D48168C1F3B2
:100590004241072910D1217B71B9416821F08001C6
:1005A0004160A06A20F48050A062A06AC00503D414
:1005B000A06A40F00100A0622046FFF7F1FE21682A
:1005C0006FF00C00086068060CD5F0070AD0A06A2E
:1005D00040F48030A062204600F094F821686FF06B
:1005E0000100086070BD00002DE9F0414FF00007E8
:1005F00004003D467ED0A06A002628B9E66284F851
:100600002460204600F080F82046FFF747FEA16AEC
:10061000C90600D420B1A06A40F01000A06269E0D1
:10062000A16A21F4885141F00201A1626268E16986
:10063000237B0A4347EA43010A43A1684FF48077CA
:10064000B94209D0012907D05FF0000194F814C025
:10065000BCF1010F02D00AE03946F7E7F3B1A36A13
:1006600043F02003A362E36A43F00103E3622368DB
:10067000D3F804C02CF4694C4CEA010CC3F804C054
:1006800021688B68DFF870C003EA0C0313438B60AA
:10069000A168B9420BD0012909D00CE0DFF85CC099
:1006A000A3690CEB43330B4343F40061DFE7218A7A
:1006B0000D05A5F580152168CB6A23F470032B4343
:1006C000CB62216889680E4B1940914208D1E662DD
:1006D000A16A21F0020141F00101A162BDE8F081AF
:1006E000A06A20F0020040F01000A062E06A40F032
:1006F0000100E0620120F1E7FDF7E1FF00E0FFFF0C
:10070000FE0E1FFF7047000000B585B0002100916C
:1007100001910291039100681249884220D1124848
:10072000816941F400718161816901F40071049172
:10073000816941F0040181618069694600F004002B
:1007400004900220009003200190084800F080F8F7
:1007500000220221122000F0E5F9122000F0D4F965
:1007600005B000BD00240140001002400008014017
:1007700010B590F821100022022905D004218163D0
:1007800080F82020012010BD01680B6823F00E03C3
:100790000B6001680B6823F001030B6090F8403098
:1007A000C46B012101FA03F3636080F8211080F823
:1007B0002020104610BD000010B590F82110002434
:1007C000022903D00421816301243DE001680A6805
:1007D00022F00E020A6001680A6822F001020A6033
:1007E0001A4A0168914201D1012121E0174A1432CD
:1007F000914201D110211BE0144A2832914201D1CB
:10080000891515E0114A3C32914201D189140FE05B
:100810000E4A5032914202D14FF4803108E00B4A27
:100820006432914202D14FF4801101E04FF08071A7
:10083000064A083A5160012180F82110002180F811
:100840002010416B01B18847204610BD08000240CE
:100850002DE9F84FDFF8B8910024A9F1040B2346E5
:100860000F2709F1040AABF1040EC9E00125A540E8
:100870002A40AA427DD1674ED1F804C0ACEB0608ED
:10088000B44532D014DCBCF1030F3AD009DCBCF122
:10089000000F2AD0BCF1010F1CD0BCF1020F31D1E6
:1008A0001DE0BCF1110F17D0BCF1120F2AD119E0D5
:1008B000B8F5881F19D006DCB8F5803F15D0B8F51B
:1008C000801F1FD111E0B8F5001F0ED0B8F5041F2E
:1008D00018D10AE0CB6815E0CB681B1D12E0CB688D
:1008E00008330FE0CB680C330CE08B682BB1012B85
:1008F0004FF0080303D0456104E0042302E00561E2
:1009000000E00023FF2A01D8064601E000F10406BA
:100910004FEA840501D9A5F12005D6F8008007FA31
:1009200005FC28EA0C0803FA05F548EA0508C6F8AC
:1009300000804D68ED0062D5374DAE6946F0010686
:10094000AE61AD6924F0030605F001050095334D55
:1009500006EB050CDCF80850A607360F07FA06F878
:1009600025EA0805DFF8B880404503D14FF00008BC
:1009700017E044E0DFF8AC80404502D14FF00108B9
:100980000FE0DFF8A480404502D14FF0020808E0F4
:10099000DFF89880404502D14FF0030801E04FF0A6
:1009A000040808FA06F848EA0508CCF808804D68FB
:1009B000D9F80060ED024D4601D5164300E096439C
:1009C0002E604D68DAF80060AD02554601D5164339
:1009D00000E096432E604D68DBF80060AD035D4695
:1009E00001D5164300E096432E604D68DEF80060A6
:1009F000ED03754601D5164300E096432E60641C56
:100A00000D682A46E5407FF431AFBDE8F88F00005D
:100A100008040140000011100010024000000140D5
:100A200000080140000C014000100140001401408A
:100A3000C26821EA02030A4043EA024101617047A9
:100A40000AB1016170470904FBE7000001488068B2
:100A5000704700005C000020024881680278114461
:100A6000816070475C000020074810B5016841F0C4
:100A700010010160032000F075F80F2000F006F867
:100A800000F024F8002010BD0020024070B50D4D8C
:100A900004464FF47A712878B1FBF0F00A490968EE
:100AA000B1FBF0F000F052FB48B9102C07D2002245
:100AB0002146501E00F036F800206C6070BD012009
:100AC00070BD00005C000020680000200C4808B5E4
:100AD000816941F001018161816901F001010091A9
:100AE000C16941F08051C161C06900F0805000903F
:100AF0000448416821F0E06141F00071416008BDA7
:100B00000010024000000140002809DB00F01F0235
:100B1000012191404009800000F1E020C0F800115F
:100B200070470000F0B40E4B1B680C46C3F3022361
:100B3000C3F10705042D00D90425191D072901D289
:100B4000002300E0DB1E012606FA05F1491E2140C4
:100B500099409E40761E16403143F0BC01F0AFBE76
:100B60000CED00E0064900F0070208684FF6FF03AD
:100B7000184040EA0220034A104308607047000012
:100B80000CED00E00000FA052DE9F8430546007879
:100B9000354CC00754D0E0690026C00008D4E06995
:100BA00040F08050E061E069012600F08050009044
:100BB0002E480168C90512D40168804641F480714D
:100BC0000160FFF743FF074605E000BFFFF73EFF68
:100BD000C01B642823D8D8F80000C005F6D5206AC9
:100BE00010F4407021D0A98801F4407181421CD0DA
:100BF000206A1F49012220F440700A6000220A6026
:100C00002062C00711D0FFF721FF074641F2883864
:100C100008E000BFFFF71AFFC11B414502D90320BE
:100C2000BDE8F883206A8007F4D5206A696820F45B
:100C30004070084320621EB1E06920F08050E061FE
:100C40002878800705D56068A96820F440400843EB
:100C500060602878C00605D56068E96820F48000E7
:100C6000084360600020DBE7001002400070004095
:100C7000400442422DE9F0470F46050061D0434E43
:100C8000306800F00700B84209D2306820F0070051
:100C900038433060306800F00700B84251D128680E
:100CA0003B4C810712D5400703D5606840F4E060F3
:100CB00060602878000703D5606840F46050606089
:100CC0006068A96820F0F000084360602878C007D9
:100CD00028D06868012810D02168022810D0890720
:100CE00000292EDA616821F0030101436160FFF7FA
:100CF000ADFE804641F288390DE021688903EFE7B7
:100D00008901EDE7FFF7A2FEA0EB0801494502D9F2
:100D10000320BDE8F0876068696800F00C00B0EB64
:100D2000810FEFD1306800F00700B8420BD930686E
:100D300020F0070038433060306800F00700B84208
:100D400001D00120E5E72878400705D56068E9680B
:100D500020F4E060084360602878000706D56068EA
:100D6000296920F4605040EAC100606000F038F862
:100D70006168084AC1F30311515CC8400649086024
:100D800006480068FFF782FE0020C2E7002002400C
:100D900000100240E43A00086800002060000020D3
:100DA0000448054900684968044AC1F30221515CBE
:100DB000C84070476800002000100240F43A000864
:100DC0000448054900684968044AC1F3C221515CDE
:100DD000C84070476800002000100240F43A000844
:100DE0000E4A51680E4801F00C03042B11D0082B59
:100DF0000FD10C48C1F38343C903C05C0AD55168C5
:100E0000084AC1F34041921E515C054A5043B0FB71
:100E1000F1F0704704494843704700000010024059
:100E200000127A00D43A000800093D002DE9F84F7D
:100E3000040070D02078C04DC00749D06868C0F366
:100E40008100012807D06868C0F38100022809D119
:100E50006868C00306D52868800339D56068002813
:100E6000E7D035E06068B0F5803F0BD010B1B0F549
:100E7000A02F11D0286820F480302860286820F442
:100E8000802002E0286840F480302860606890B1DB
:100E9000FFF7DCFD06460AE0286840F48020286061
:100EA000F0E700BFFFF7D2FD801B642873D82868E5
:100EB0008003F7D50CE0FFF7C9FD064605E000BF4B
:100EC000FFF7C4FD801B6428F0D828688003F7D49E
:100ED00020789A4E80074FF001094FF0000839D56D
:100EE000686810F00C0F07D06868C0F38100022812
:100EF00009D16868C00306D42868800714D5206922
:100F0000012808D110E02069B0B1C6F80090FFF7C1
:100F10009DFD074605E00AE1FFF798FDC01B02288A
:100F2000C4D828688007F7D52868616920F0F800E0
:100F300040EAC10028600DE0C6F80080FFF786FD9A
:100F4000074604E0FFF782FDC01B022823D828686B
:100F50008007F7D4207800072CD57948A169D9B14A
:100F6000C0F80090FFF772FD074604E0FFF76EFD42
:100F7000C01B02280FD8686A8007F7D571484FF464
:100F8000FA510068B0FBF1F0009000BF0098411EDC
:100F90000091FAD20EE080E0C0F80080FFF756FD25
:100FA000074604E0FFF752FDC01B022875D8686AA7
:100FB0008007F7D42078400760D5E8690027C00093
:100FC00008D4E86940F08050E861E869012700F042
:100FD000805000905C480168C90513D401688346BD
:100FE00041F480710160FFF731FD824606E000BFE9
:100FF000FFF72CFDA0EB0A0064284ED8DBF80000B8
:10100000C005F5D5E06801280AD008B1052813D03D
:10101000286A20F001002862286A20F0040002E01B
:10102000286A40F001002862E06841F2883B98B1EC
:10103000FFF70CFD82460BE0286A40F004002862AE
:10104000EEE700BFFFF702FDA0EB0A0159455AD8B1
:10105000286A8007F6D50CE0FFF7F8FC824605E029
:10106000FFF7F4FCA0EB0A0159454CD8286A800729
:10107000F6D41FB1E86920F08050E861E06988B3D8
:101080006968C1F38101022944D00228C6F8608052
:1010900004D0FFF7DBFC044638E034E0FFF7D6FC71
:1010A000074604E0FFF7D2FCC01B02282BD82868B3
:1010B0008001F7D4206AB0F5803F05D16868A16847
:1010C00020F4003008436860D4E9080108436968E7
:1010D00021F4741108436860C6F86090FFF7B6FC0D
:1010E000044606E025E000BFFFF7B0FC001B022825
:1010F00009D828688001F7D51BE000BFFFF7A6FCE0
:10110000001B022802D90320BDE8F88F286880015F
:10111000F4D40EE00128F7D06868226A00F4803128
:10112000914204D1616A00F47010884201D001201C
:10113000EAE70020E8E70000001002400000424219
:1011400080044242680000200070004010B5401E3C
:10115000B0F1807F01D3012010BD4FF0E024606129
:101160000F21601701F0ABFB0020A0610720206178
:10117000002010BD7047704710B590F83C20012A40
:1011800022D0012280F83C20CA688C6822F4407288
:1011900022434C6822F4806222430C6822F40062ED
:1011A00022430C6922F4805222434C6922F40052FB
:1011B0002243C969002322F480420A4301684A6439
:1011C00080F83C30002010BD022010BD70B590F8B2
:1011D0003C20012A26D0012480F83C40022280F8DD
:1011E0003D2003685A689D6822F070060A68324301
:1011F0005A600D4B02689A4208D0B2F1804F05D078
:101200000A4B9A4202D00A4B9A4204D1496825F00F
:1012100080031943916080F83D40002180F83C1024
:10122000084670BD022070BD002C01400004004043
:101230000008004010B5040003D094F83D0010B140
:1012400007E0012010BD002084F83C00204600F09B
:101250001FF8022084F83D00211D206801F0C8F825
:10126000012084F8460084F83E0084F83F0084F8AA
:10127000400084F8410084F8420084F8430084F878
:10128000440084F8450084F83D00002010BD0000B3
:1012900008B5114A01681148914208D1816941F4A9
:1012A00000618161806900F40060009008BDB1F1C7
:1012B000804FFBD1C16941F00101C161C0690022C9
:1012C00000F00100009011461C20FFF72BFCBDE848
:1012D00008401C20FFF718BC002C01400010024001
:1012E00090F83D10012901D001207047022180F8BB
:1012F0003D100168CA6842F00102CA6000680B49EB
:10130000884208D0B0F1804F05D00949884202D008
:101310000849884204D1816801F00701062903D0F9
:10132000016841F00101016000207047002C01407C
:10133000000400400008004070B5044690F83C00EE
:101340000025012817D0012684F83C60022084F88B
:101350003D002068826822F0770222F47F4282609A
:101360000868502838D00DDC20284FD005DC90B319
:10137000102811D14AE0022070BD302846D0402804
:101380000AD13BE060282FD070280DD0B0F5805FE7
:1013900003D0B0F5005F12D0012584F83D60002035
:1013A00084F83C00284670BDCB68D1E90121206853
:1013B00001F061F82068816841F0770109E0CB68AD
:1013C000D1E90121206801F056F82068816841F4D4
:1013D00080418160E1E719E0CA684968206801F04E
:1013E000FFF85021206806E0CA684968206801F0CB
:1013F00008F96021206801F048F8CEE7CA6849681A
:10140000206801F0EDF840212068F4E722680146E9
:101410001046F0E72DE9F0410D46040003D094F8A2
:101420003D0018B108E00120BDE8F081002084F8FB
:101430003C00204600F040F8022084F83D0020687F
:10144000816844F2070291438160211D206800F009
:10145000CFFF226890689169166A2B68AF690343D1
:1014600040F20330814341EA0721A868EF6908434D
:101470004FF6FC418843E96840EA072001432869A8
:101480002F6A000140EA0730084369686D6926F059
:10149000220646EA0515294393602268906154F8B4
:1014A000460B0162012004F81F09E0752076E07602
:1014B0002077A0750020B7E700B585B00021009126
:1014C00001910291039100680D49884216D10D489F
:1014D000C16941F00201C161C16901F002010491D9
:1014E000816941F0040181618069694600F004006E
:1014F0000490C02000900448FFF7AAF905B000BD91
:1015000000040040001002400008014070B590F84F
:101510003E60044690F83F5090F8423090F84320E7
:10152000022021B104290ED0012E1BD114E0012E7E
:1015300018D1012B16D184F83E0084F84200012214
:101540000021206820E0012D0CD1012A0AD184F865
:101550003F0084F8430014E0012D03D1012B01D199
:10156000012A01D0012070BD84F83E0084F83F00BC
:1015700084F8420084F8430001220021206800F032
:101580006DFF01220421206800F068FF20680168D7
:1015900041F001010160002070BD704770B5044644
:1015A000006801694FF00005C943890715D4C16877
:1015B000C943890711D4E91E016101202077206801
:1015C00080698007204602D0FFF7E7FF04E000F0C3
:1015D000BFF8204600F051F9257720680169C9431A
:1015E000490717D4C168C943490713D46FF00401F0
:1015F0000161022020772068806910F4407F204636
:1016000002D0FFF7CAFF04E000F0A2F8204600F085
:1016100034F9257720680169C943090716D4C168E0
:10162000C943090712D46FF0080101610420207733
:101630002068C0698007204602D0FFF7AEFF04E0B3
:1016400000F086F8204600F018F925772068016937
:10165000C943C90617D4C168C943C90613D46FF07A
:1016600010010161082020772068C06910F4407FD4
:10167000204602D0FFF791FF04E000F069F8204611
:1016800000F0FBF8257720680169C943C90708D134
:10169000C168C943C90704D1891E0161204600F011
:1016A0003BF920680169C943090609D4C168C943E7
:1016B000090605D46FF0800101612046FFF75AFD4D
:1016C00020680169C943490609D4C168C94349066C
:1016D00005D46FF040010161204600F00FFA206848
:1016E0000169C94389060BD4C168C943890607D477
:1016F0006FF0200101612046BDE87040FFF73BBD5F
:1017000070BD000000B585B00021009101910291EB
:10171000039100680B49884212D10B48816941F05E
:10172000040181618069694600F0040004904FF46F
:10173000407000900220019003900448FFF788F861
:1017400005B000BD002C014000100240000801401F
:10175000704770B5044690F83C0000260D460128FD
:101760000FD0012084F83C006AB1042A1DD0082A59
:101770002FD00C2A3FD00126002084F83C003046B0
:1017800070BD022070BD206800F088FE206881696D
:1017900041F0080181612068816921F004018161C3
:1017A000206881692A69114311E0206800F09EFEDB
:1017B0002068816941F4006181612068816921F4B8
:1017C00080618161206881692A6941EA0221816121
:1017D000D2E7206800F0B6FE2068C16941F0080138
:1017E000C1612068C16921F00401C1612068C1693B
:1017F0002A69114311E0206800F0D0FE2068C16919
:1018000041F40061C1612068C16921F48061C16156
:101810002068C1692A6941EA0221C161ACE710B5BB
:10182000040003D094F83D0010B107E0012010BD82
:10183000002084F83C00204600F01EF8022084F8C6
:101840003D00211D206800F0D3FD012084F84600F2
:1018500084F83E0084F83F0084F8400084F841009A
:1018600084F8420084F8430084F8440084F845007A
:1018700084F83D00002010BD7047704710B5044645
:10188000022249B104290ED0082913D094F841004E
:10189000012816D0012010BD94F83E000128F9D18E
:1018A00084F83E200FE094F83F000128F2D184F83C
:1018B0003F2008E094F840000128EBD184F8402054
:1018C00001E084F841200122206800F0C7FD0F49A3
:1018D0002068884203D1426C42F40042426420688E
:1018E000884208D0B0F1804F05D00949884202D023
:1018F0000849884204D1816801F00701062903D014
:10190000016841F001010160002010BD002C014080
:1019100000040040000800402DE9F05F654C002500
:10192000606A401C6062642805D14FF4005162482F
:101930006562FFF77DF82078DFF880815F4E08F15F
:101940000C0800286FD0607801286DD1A06A01F0E2
:1019500039FD5B4A5B4B01F0EBF801F0B7F8DFF8BB
:101960006891A062B0F17E5F01DC49463EE06FF015
:1019700080410144DFF854B1B1F5800F08D24FF037
:10198000804101F093FF594601F0BAFE494658E004
:101990006FF0814142184FF400114D4F8A4208D236
:1019A0004FF0814101F082FF394601F0A9FE49491B
:1019B0000BE0494A02448A420AD24749C94301F02E
:1019C00075FF394601F09CFE394601F065FF3AE0AB
:1019D0006FF0824142184FF48011DFF800A18A4273
:1019E00007D24FF0824101F061FF514601F088FEBD
:1019F00029E03B4A02448A4208D23949C94301F0EE
:101A000055FF394601F07CFE5146DEE7354A024477
:101A10008A420AD23349C94301F048FF594601F0CE
:101A20006FFE31490DE038E01FE0304A02448A423F
:101A300015D22E49C94301F039FF494601F060FE35
:101A40002B4901F0EBFC05462A4901F059FE2A49D1
:101A500001F04CFDA064284601F018F805E0B0F153
:101A6000834F02DB25706570A56200F0E9FB3068EA
:101A700001F032FE216D01F043FE01F0F9FDC8F8DE
:101A80000000606A052190FBF1F201FB12000028C2
:101A90000ED1BDE8F05F00F085BF306801F096FA26
:101AA0004FF0FF3201F0A9FF01F04AFAC8F8000038
:101AB000BDE8F09F00000020001001402C2C0140E8
:101AC0007B14AE47E17A843F0000C8420000A04288
:101AD0000000B44200003443FFFF3FBF0000B4C227
:101AE000FFFFDFBEFFFFBFBE000034C3FFFF9FBE8E
:101AF0000000C8C20080ED4400007042704770478B
:101B000070470000F8B5016804460868CA684B6968
:101B100010F00F0F4FF0000559D003F0010602F44A
:101B20009077374365D0C10705D0D10503D5616CE7
:101B300041F001016164410705D5D90703D0616C0B
:101B400041F002016164810705D5D90703D0616CBA
:101B500041F004016164010707D502F0200131431F
:101B600003D0616C41F008016164616C00293AD0D6
:101B7000800604D5900602D5204600F083FD20683B
:101B80004069616CC0F38010090700D460B320463F
:101B900000F051FD20684069400621D520681430CE
:101BA00050E8001F21F0400140E80012002AF5D162
:101BB000E06BA8B16D494163E06BFEF7FDFD0028C5
:101BC00011D0E06B416B01B0BDE8F04008478306DF
:101BD0000FD593060DD52046BDE8F84000F052BD64
:101BE0002046FFF78DFFF8BD2046FFF789FF6564AB
:101BF000F8BD266B2023012E7CD1C6067AD5D606E9
:101C000078D508684868009048694FF00206400699
:101C100040D5E16B086840680004000CE8D0A28D54
:101C20008242E5D9E085886920282DD020680C30D3
:101C300050E8001F21F4807140E80012002AF5D11D
:101C40002068143050E8001F21F0010140E8001224
:101C5000002AF5D12068143050E8001F21F040011F
:101C600040E80012002AF5D184F84230256320684C
:101C70000C3050E8001F21F0100140E80012002A4B
:101C8000F5D1E06BFEF774FD6663A08DE18D401A1F
:101C900081B22AE0A08DE18D401A81B2E08D00284A
:101CA000A6D00029A4D022680C3252E8000F20F4FC
:101CB000907042E80007002FF5D12068143050E8FA
:101CC000002F22F0010240E80027002FF5D184F810
:101CD0004230256320680C3050E8002F22F01002BB
:101CE00040E80023002BF5D166632046FFF707FF8D
:101CF000F8BDFFE705062BD5150629D594F8410058
:101D00002128F5D1A068B0F5805F01D12069B0B17C
:101D1000206A411C2162216800784860E08C401EE6
:101D20000004000CE084E3D12068C16821F0800148
:101D3000C1602068C16841F04001C160D8E7206AF5
:101D40000088C0F308004860206A801C2062E5E734
:101D50004006CDD55006CBD5CA68204622F04002B9
:101D6000CA6084F8413000F02EF9C1E72726000848
:101D700070B5040004D094F84100002510B106E0CD
:101D8000012070BD84F84050204600F023F8242044
:101D900084F841002068C16821F40051C1602046E8
:101DA00000F0D2FC2068016921F4904101612068B3
:101DB000416921F02A0141612068C16841F4005164
:101DC000C1606564202084F8410084F842006563A6
:101DD000002070BD30B585B00024009401940294B9
:101DE00003940068184988422BD11848C16941F40E
:101DF0000031C161C16901F400310491816941F090
:101E0000040181618069124D00F0040004900420F7
:101E10000090022001900320039069462846FEF7B7
:101E200017FD0820CDE90004694628460294FEF714
:101E30000FFD002201212620FEF774FE2620FEF76A
:101E400063FE05B030BD00000044004000100240B9
:101E50000008014090F84230202B01D0022070474A
:101E600021B11AB10023036300F0CABC01207047FE
:101E700070B50068284988424CD1284808250122BD
:101E80000178274C522906D0532906D0562907D06D
:101E9000502908D036E0227034E00020207031E074
:101EA000227062702EE02946401CFEF723FA1D497D
:101EB00001F026FC1C4901F019FBA06417482946D3
:101EC0000930FEF717FA2063144829461130FEF74F
:101ED00011FA6063114829461930FEF70BFAA06326
:101EE0000E4829462130FEF705FAE0630B482946E3
:101EF0002930FEF7FFF92064084829463130FEF703
:101F0000F9F96064BDE870400449392201F5AC700C
:101F1000FFF7A0BF70BD0000004400406C0000202F
:101F2000000000200080ED44000070422DE9F843DD
:101F3000044690F841001F4616460D46202802D060
:101F40000220BDE8F8837DB176B1002060642120D5
:101F500084F84100FEF77AFDA6848046E684A068F6
:101F6000B0F5805F02D003E00120EAE7206910B1FC
:101F70002E4600250EE000260CE08021204600F0D1
:101F80005AFCA0B9AEB116F8010B21684860E08C8C
:101F9000401EE084E08C43464FF00002009700288A
:101FA000EBD14FF04001204600F045FC30B103205A
:101FB000C7E735F8020BC0F30800E6E7202084F8F5
:101FC00041000020BDE77047FEE700003EB500215C
:101FD0001148009101910F4A0291026081600173E2
:101FE000017501244FF460220461C2614160FEF773
:101FF000FBFA08B172B6FEE704200094CDE9014077
:1020000069460548FEF7CEF9002801D072B6FEE712
:102010003EBD000000240140BC00002070B586B029
:10202000002418480094019402940394816941F0BB
:1020300010018161816901F010010491816941F011
:1020400020018161816901F020010491816941F0E1
:102050000401816180690C4E00F004004FF40055CA
:102060000490002229463046FEF7EAFC0120009544
:10207000CDE901040220039069463046FEF7E8FBF3
:1020800006B070BD001002400010014010B596B0BF
:1020900000240F9410941194129413941C216846F8
:1020A0001494FEF791F8202107A8FEF78DF82C482C
:1020B0002A4901604721C0E9011440F2E731C0E933
:1020C000031444618461FFF7B5F808B172B6FEE706
:1020D0004FF480500F900FA92148FFF72DF908B158
:1020E00072B6FEE71E48FFF79AFB08B172B6FEE72C
:1020F000139413A91A481494FFF768F808B172B63C
:10210000FEE76020CDE90004029403940494059452
:102110000022694612480694FFF71BFB08B172B60D
:10212000FEE7042269460E48FFF713FB08B172B6BA
:10213000FEE70794089409944FF400500A94CDE9FF
:102140000B4007A906480E94FFF716F808B172B6BF
:10215000FEE70348FFF7D6FA16B010BD002C014089
:10216000EC00002010B586B00024174800940194BC
:102170000294039404944FF080410594016040F26E
:10218000CF21C0E9011440F2E731C0E903148461B2
:10219000FFF750F808B172B6FEE74FF48050009098
:1021A00069460948FFF7C8F808B172B6FEE704941B
:1021B00004A905480594FFF709F8002801D072B674
:1021C000FEE706B010BD00003401002010B58CB051
:1021D00024216846FDF7F8FF0024174809941549A3
:1021E0000A94C0E900144FF6FF71C0E90241802152
:1021F000046181610320CDE9000401200A21CDE9B9
:1022000002040491CDE90540079469460A48089400
:10221000FFF700F908B172B6FEE7099409A906486C
:102220000A94FEF7D3FF002801D072B6FEE70CB087
:1022300010BD0000000400407C010020FEE7FEE726
:102240002DE9F84F3E4D286800B200F0A8FEDFF8F7
:10225000F490DFF8F4A04A46534600F019FD00F070
:1022600035FC3A4CE06400F03BFB0021E06429605F
:102270000146A06C01F01AFB8346E0690121009041
:1022800001F0E9FB594601F007FB216A01F0C6F8AD
:10229000A16B01F035FA01F095F84A46534600F07B
:1022A000F7FC074688465846009901F0B7F801F058
:1022B00089F805460E46606B01F084F84A4653469D
:1022C00000F098FE4FF0FF3201F097FB2A463346AC
:1022D00000F090FE05460E465846009901F0E6FAD9
:1022E000216B01F00DFAA16901F098F801F06AF88C
:1022F0002A46334600F01CFC3A46434600F018FCE0
:1023000000F0E4FB2065A0610099C4E907B14FF03B
:102310007E51884202DC0E49884200D92165206D39
:1023200001F050F80B4A0C4B00F064FE00220B4BFE
:1023300000F0FEFB00F0CAFB2065BDE8F88F00004E
:10234000240400407B14AE47E17A843F0000002063
:10235000000080BFB81E85EB51B8DE3F0000E03FB3
:1023600070477047FEF778BB30B593B028216846B8
:10237000FDF72AFF14210AA8FDF726FF00250120FA
:102380000F9510951195010412958DE82300049086
:102390004FF4E010CDE90810022407946846FEF7D8
:1023A00045FD08B172B6FEE70AA90F2081E83100A9
:1023B0004FF48060CDE90D0502210AA8FEF75AFC12
:1023C00008B172B6FEE74FF4004011900F940FA8C9
:1023D000FEF7DAFB002801D072B6FEE713B030BD7D
:1023E000704700000148FFF7D9B800003401002011
:1023F000F0B50268164B174C174D4FF080479842C6
:1024000005D0B84203D0A04201D0A84203D122F0A7
:1024100070064A683243984205D0B84203D0A042C1
:1024200001D0A84203D122F44074CA6822434C6907
:1024300022F08002224302608A68C2620A688262D5
:10244000984201D10969016301214161F0BD000099
:10245000002C0140000400400008004010B501F0CD
:102460001F030121046A99408C430462016A9A4067
:102470001143016210BD10B5846842EA032224F4BE
:102480007F440A432243826010BD826822F07002BA
:102490000A4342F0070181607047000030B5036ACB
:1024A000026A22F0010202624268846924F0730524
:1024B0000C682C4323F002058B682B430A4DA8427D
:1024C0000BD123F00805CB6822F440722B434D69F1
:1024D00023F0040315438A692A43426084614968F2
:1024E0004163036230BD0000002C014030B5026A38
:1024F000036A23F010030362436884690D6824F4BF
:10250000E64444EA05248D6822F0200242EA0512DE
:102510000B4DA8420ED1CD6822F0800242EA05128E
:102520004D6923F4406343EA85038D6922F040023C
:1025300043EA85034360846149688163026230BD78
:10254000002C014030B5036A026A22F480720262F4
:102550004268C46923F4007324F073050C682C43AB
:102560008D6843EA05230C4DA8420ED1CD6823F4B3
:10257000006343EA05234D6922F4405242EA051202
:102580008D6923F4806342EA05124260C4614968A0
:10259000C163036230BD0000002C014030B5046A05
:1025A000026A22F4805202624268C3690D6823F411
:1025B000E64343EA05238D6824F4005444EA0534D5
:1025C000064DA84204D14D6922F4804242EA8512A8
:1025D0004260C36149680164046230BD002C01405F
:1025E00010B5036A046A24F001040462846924F0CB
:1025F000F00444EA021423F00A020A4384610262EE
:1026000010BD10B5036A046A24F0100404628469E2
:1026100023F0A00324F4704444EA023243EA011197
:102620008261016210BD10B5406A0021C185C1847C
:10263000FFF766FA10BD01680C3151E8002F22F453
:10264000907241E80023002BF5D10168143151E864
:10265000002F22F0010241E80023002BF5D1016B8D
:10266000012909D101680C3151E8002F22F0100234
:1026700041E80023002BF5D1202180F842100021F1
:102680000163704708B590F84210222901D002205A
:1026900008BD82684FF480539A4201D1016921B18B
:1026A000816A9A421BD04AB10AE00268816A526884
:1026B000C2F308020A80816A891C08E0026972B1CB
:1026C0000268526802F07F020A70816A491C8162C6
:1026D000C18D491E0904090CC18503D01BE00268A5
:1026E0005268F1E70168CA6822F02002CA600168F6
:1026F000CA6822F48072CA6001684A6922F0010245
:102700004A61202180F8421000214163026B012AB6
:1027100003D0FFF7ADFB002008BD016301680C3159
:1027200051E8002F22F0100241E80023002BF5D1E0
:1027300001680A68D20602D50A6849680091818D4D
:10274000FFF7DDF9E7E7000070B5044600680169AE
:10275000E26821F44051114301612169A0680843F6
:10276000616908432168CA6841F20C639A430243D5
:10277000CA6020684169A26921F440711143416136
:102780001E492068884202D1FEF71AFB01E0FEF7DD
:1027900007FB00EBC00101EB0012606864218000C0
:1027A000B2FBF0F3B3FBF1F36FF018067343B2FB27
:1027B000F0F5B2FBF0F605EB8305322303EB0515CC
:1027C000B5FBF1F5B6FBF1F605F0F00505EB0615E6
:1027D000B2FBF0F6B2FBF0F0B0FBF1F06FF01802D4
:1027E000504306EB800003EB0010B0FBF1F02168D2
:1027F00000F00F002844886070BD000000380140E0
:1028000081628285C28500214164222180F84210C4
:10281000016921B10168CA6842F48072CA60016826
:102820004A6942F001024A610068C16841F0200132
:10283000C160002070472DE9F041984617460E46CA
:102840000446069D27E0681C25D02DB1FEF7FEF852
:10285000A0EB0800A8421ED920680C3050E8001FE9
:1028600021F4D07140E80012002AF5D1206814301C
:1028700050E8001F21F0010140E80012002AF5D1C4
:10288000202084F8410084F84200002084F84000B1
:102890000320BDE8F0812068006836EA000004D01B
:1028A0000020B842CFD00020F3E70120F9E7000074
:1028B0000148FFF727B90000C4010020FEE709071F
:1028C000090E002804DB00F1E02080F800147047B6
:1028D00000F00F0000F1E02080F8141D70470000A8
:1028E0002DE9F0410E4C0646A06800F06BFD4FF05C
:1028F00033320C4B00F07EFB07460D46E06800F0DB
:1029000061FD4FF06632084B00F074FB3A462B46EF
:1029100000F00EF900F0DAF8C4E90260BDE8F081D9
:10292000000000203333D33F6666E63FFEF79CF895
:10293000FFF71AFDFFF772FBFFF748FBFFF7A6FB57
:10294000FFF710FCFFF742FC144813490C2201600A
:102950004FF4E131416000218160C160C0E904129F
:102960008161C161FFF704FA08B172B6FEE70B4856
:102970000421D838FEF782FF08489038FEF7B0FCF3
:1029800006483C214838FEF7C1FD39220449034876
:10299000FFF760FAFEE7000000440040C401002099
:1029A0006C00002010B500F079F8BDE8104000F090
:1029B00059B800002DE9F041284E044610F1FF4FB0
:1029C00004D32D20707084F0004401E02B2070703F
:1029D000204600F04DFE054600F066FE214600F060
:1029E0005BFF1E4902240B3102460A2795FBF7F0D4
:1029F00007FB105095FBF7F530300855641C0DB1FE
:102A0000082CF3DD022005E0231A0B445B783354D5
:102A1000401CC0B2A042F7DB2E203055104D0DE017
:102A20002946104600F06CFE804600F021FE90FB27
:102A3000F7F107FB1100303030554246641C082C7A
:102A4000EEDD0D207072B772BDE8F041034901233D
:102A50000B2201F21F10FFF769BA0000A500002049
:102A600000002041064910B5752008700648054948
:102A7000006D00F045FEBDE81040FFF79BBF000071
:102A8000A50000200000C84200000020024A562194
:102A90001170FFF78FBF0000A5000020074910B597
:102AA0005320087007480649C06C00F029FE06490B
:102AB00000F01CFDBDE81040FFF77CBFA500002022
:102AC00000007042000000200080ED4421F0004230
:102AD000A2F16052B2F5801F01F0004328BFD2F18D
:102AE0007F6C0BD95FEA001C43EAC20242EB5070D4
:102AF00018BF704728BF20F001007047B2F5801F53
:102B0000BCBF184670474FEA410C1CF5001F02D2AB
:102B1000084600F0BCBE70B500F016FB000000894E
:102B2000FFF7F6BF4FF00040A0F5800070470000AF
:102B300010B591EA030F48BF83F0004300F16083B2
:102B4000841A71EB030C05D2121943EB0C03001B22
:102B500061EB0C01DFF824E14FEA1154A4EB135CA4
:102B60001EEA430F18BF9EEA445F73D023EA0E03A8
:102B7000DCF1200E21EA045143F4801332D322FA0F
:102B80000CFE10EB0E0023FA0CFE41EB0E01CCF113
:102B9000200E03FA0EFE10EB0E0051F10001B1F50C
:102BA000801FCCF1200E32D201EB045112FA0EF24A
:102BB000BDE8104058BF7047401C38BF5FEA420272
:102BC00018BF7047002814BF20F0010041F1000138
:102BD0004FEA410313F5001F38BF7047A1F1C04110
:102BE00000F000BB012A43EB0302ACF1200CDCF146
:102BF0001F0E32BF4FF0000E23FA0CF310EB030050
:102C000041EB0451B4EB115FD0D0A1EB045101F5BD
:102C1000801149085FEA300001EB04510ED350F1F6
:102C2000000038BF12FA0EFE08D1BDE81040C9E717
:102C3000401C38BF5FEA4202CAD1C3E7BDE810407A
:102C40004FEA410313F5001F38BF7047A1F1C0419F
:102C500000F0C8BA9EEA445F08D011EA5E0FBDE8F2
:102C6000104004BF01F0004100207047BDE8104053
:102C700070B500F069FA00BF64FBBE3E0000E0FFE3
:102C800002494FF0000000F086BE00BF0000F87F50
:102C90002DE9C04130B4DFF8A0C23CEA111418BFDE
:102CA0003CEA131400F0EC8081EA03051CEA1114DD
:102CB00044EAD57418BF1CEA131500F0C780A4EBD2
:102CC00005044FF0004545EAC12145EAC32341EA26
:102CD000505143EA525304F17F74994204F5003491
:102CE0004FEAC0204FEAC22208BF904200F09C8009
:102CF0004FEA13650FF24016765D4FEA134506FB67
:102D000005F7C7F1807706FB07F74FEAD737A7FB30
:102D100003687642C8F58038A7FB06CE38BFA8F115
:102D2000010807FB08E64FF0000EA6FB028CE6FB4D
:102D300003CEDCF1000CCEF1004E38BFAEF1010E37
:102D4000A6FB0C584FF000074FF00005E6FB0E877E
:102D5000A1FB08C6A0FB07CE16EB0E0645F1000549
:102D6000E1FB076515F1E04E7EBFA4F580345FEA14
:102D700046066D4116F1800745F100054FEA172719
:102D80004FEA066647EA0567A6F1DE46B6F1805FC0
:102D90004FEA15251FD9384624F0010C05EBC47104
:102DA000BCF1FE6F01EB0C1102D8F0BCBDE8008154
:102DB00024425CBF01F5801E9EEAC47F02D4F0BCB1
:102DC000BDE80081244238D4F0BCA1F1C041BDE887
:102DD000004100F007BA4FEAD22242EA43524FEADA
:102DE000D323A7FB02864FEAD02040EA415007FBDD
:102DF00003661EEA0E0F4FEAD12105FB026658BF9B
:102E0000A6EB0056B6EB00564FEA520E4EEAC37ED2
:102E100018EB0E0E56EB530EBDD518EB02085E41B3
:102E20007F1C55F10005B6E74FF480154FF0000701
:102E30004FF000064FF00008ADE7F0BC4FF0000087
:102E400001F1C04101F00041BDE8008111EA0C1F11
:102E50000CEA131500D00CE013EA0C1F00F02580DB
:102E60004FF00000F0BC81EA030101F00041BDE831
:102E70000081F0BCBDE8004181EA030100F0B2B975
:102E8000F0BCBDE8004170B500F05EF9097EFC3E83
:102E900000F007B881EA03014FF0000001F00041A3
:102EA000704781EA030100F09DB9F0BCBDE8004124
:102EB0004FF0000021497047FFFDFBF9F7F5F4F2F0
:102EC000F0EEEDEBE9E8E6E4E3E1E0DEDDDBDAD8C5
:102ED000D7D5D4D3D1D0CFCDCCCBCAC8C7C6C5C423
:102EE000C2C1C0BFBEBDBCBBBAB9B8B7B6B5B4B33A
:102EF000B2B1B0AFAEADACABAAA9A8A8A7A6A5A425
:102F0000A3A3A2A1A09F9F9E9D9C9C9B9A999998E8
:102F10009797969595949393929191908F8F8E8E8B
:102F20008D8C8C8B8B8A8989888887878685858418
:102F300084838382828181800000FF070000F87F04
:102F40004FEA41034FEA5353A3F58063D3F11E03C5
:102F5000C8BFD3F1210C0CDD4FF0004242EAC12280
:102F600042EA505232FA03FC8CEAE17CACEBE170AD
:102F70007047102BC4BF0020704703F5787CBCF16C
:102F8000FF3F04D06FF0004282EA2100704770B525
:102F900000F0DAF84992248000207047F2E710F040
:102FA000004248BF4042B0FA80F310FA03F10AD061
:102FB000C3F11D0303F580634FEA415002EB035256
:102FC00002EBD12170474FF000007047B0FA80F358
:102FD00010FA03F10AD0C3F11D0303F580634FEA31
:102FE00041504FEA035202EBD12170474FF00000ED
:102FF00070470000DFF848C170B51CEA111E1EBF03
:103000001CEA13159EEA0C0F95EA0C0F00F06F8076
:1030100081EA030423EA4C134EEAD47E21EA4C11E0
:1030200041F4801143F48013AE44A1FB024CA0FB99
:103030000365AEF17F7E361955EB0C05A1FB034C01
:103040004CF10003A0FB021C16EB0C06654153F18A
:103050000003094218BF46F0010613F4007F0BD1AC
:103060004FEA03314FEA0530340341EA155140EA93
:1030700016506FF003020AE04FEAC3214FEAC52061
:10308000F40241EA555140EA56506FF0020202EB59
:103090002E4201EB025585EACE710AD05FEA440C5C
:1030A00018BF24F0004450F1000041F1000120EA73
:1030B000D47040F2FE7C624500D270BDA84214BFBD
:1030C0004FF080444FF04044002E08BF0024BEF172
:1030D000806FA8BFA1F1C041BDE8704080F282803E
:1030E0004FF0000001F1C04101F0004170479EEA3D
:1030F0000C0F0CEA131518BF95EA0C0F06D04FF011
:10310000000081EA030E0EF0004170BD00F01CF8D3
:103110008900013E00F007B800F009B84FEA430CFF
:103120005FEA5C5C08D081EA030100F05BB84FEA1B
:10313000410C5FEA5C5CF6D14FF00000014970473A
:103140000000FF070000F87F0EF1020E2EF0030EC4
:103150005EF8046B364205D4012A43EB030515F5EE
:10316000001F12D8012841EB010C1CF5001F0CD8E0
:103170000ED14FEAD17C15F5001F0CEB4C0C0CF175
:10318000020C08BF4CEBD37C04E04FF0080C01E0CC
:103190004FEAD37C0CEB4C0526FA05F606F0070641
:1031A000B6F1040C06D20EEB860CBDE870404CF074
:1031B000010C6047DFE80CF0090B02024FF0004100
:1031C0004FF00000A1F5002170BD194610460128FE
:1031D00051EB010418BFD4F5001484BF002001F0A6
:1031E000004170BD0808A0F500114FEA3101704799
:1031F00010B591EA030F48BF83F000433FF5A0AC40
:10320000841A71EB030C07D212198CF0004C43EBBB
:103210000C03001B61EB0C01DFF8A4E14FEA115431
:10322000A4EB135C1EEA430F18BF9EEA445F00F054
:10323000B08023EA6E03524221EA0451C3EB6E03CD
:1032400038BF5B1EDCF1200E25D322FA0CFE10EBFA
:103250000E0043FA0CFE41EB0E01CCF1200E03FAF6
:103260000EFE10EB0E0051F10001CCF1200E29D41E
:1032700012FA0EF201EB0451BDE8104058BF70473E
:10328000401C1CBFB2F1004F704700280CBF491C06
:1032900020F00100704712EB020E43EB030218BF4F
:1032A0004FF0010E4EEA4202ACF1200CDCF11E0E92
:1032B00054D943FA0CFE10EB0E0051F1FF31CCF162
:1032C0001E0ED5D50EF1010E12FA0EFE404141EB55
:1032D000010101EB445C5FEA5C5C10D910EBDE702D
:1032E00001EB045138BFBEF1004FBDE8104018BFDC
:1032F000704700280CBF491C20F00100704730D2F5
:103300004FEAD42C11F5001124F400641BD0B1FA5B
:1033100081F20B3AA41AA41ED2F12003914030FA94
:1033200003F31943904001EBCC71002C01EB0451E5
:10333000BDE81040A8BF704701F1C0414FF0000048
:1033400001F000417047B0FA80F310FA03F100D1A8
:1033500010BDE41A173C4805C90AE4E701EB045123
:1033600010BD491001EB0451BDE810404FEA300098
:1033700002E04FF0000170474A0008BF0042F8D059
:10338000B2F5001F28BF704701F000414FF0000068
:1033900070479EEA445F07D011EA5E0FBDE8104017
:1033A00004BF002100207047BDE8104070B5FFF752
:1033B000CBFE00BF40DFF63E83F000411046704771
:1033C0000000E0FF43004FEAD30C4FEA3C0C4340BF
:1033D0001FBF40070CF1605113F0FE4F70471CF007
:1033E000006F03D100200CF0004170470CF0004347
:1033F00043EA507010B540EACC0000F002FA00BF7A
:10340000000000924FEA0001FFF7ECBE4FF00041D0
:103410004FF00000A1F500217047000090EA010F75
:1034200048BF81F0004100F14882421A3CBF801A37
:1034300089184FEAD0524FF07F4C1CEA410FA2EBA3
:10344000D15318BF9CEA026F00F03B804FF0004C54
:103450004CEA00204CEA012121FA03FC10EB0C0C91
:103460001ED202F1FF325FEA1C2040EBC25038BF8F
:1034700070471CF07F0F4FEA400C18BFBCF17F4F24
:1034800038BF7047C3F12003994008BF20F0010006
:10349000BCF17F4F38BF7047A0F1C04000F0F7B9D2
:1034A0004FEA3C00000A40EBC25028BF1CF0FF0F5F
:1034B0004FEA400CE6D018BFBCF17F4F38BF7047D1
:1034C000EAE79CEA026F05D010EA5C0F08BF00F043
:1034D0000040704710B500F094F900BF64FBBE3E99
:1034E000014800F058BA00BF0000C07F4FF47F0CC5
:1034F0001CEAD0121EBF1CEAD11392EA0C0F93EA09
:103500000C0F00F0858090EA010F48BF42F48072F2
:1035100040F4000C41F400002CF07F4120F07F408B
:1035200000B58142A2EB03020FF2081CACEB504E37
:10353000C0F100009EF800E04FEA4E0E00FB0EFCCA
:1035400038BF49004FEA2C1C02F5FA020CFB0EF3BF
:103550004FEACE1E4FEA112C4FEAC1210EEB635EFB
:1035600042EB22420EFB0CFC4FEA1C5300FB031102
:103570004FEA112C4FEA01310EFB0CFC4FEADC4CF8
:1035800000FB0C11C14228BF09184CEB03335DF856
:1035900004EB10EB410143EBC250B2F57C0F38BF96
:1035A000704729D512F0F00F1CBF00F1C04000F0A9
:1035B00000407047008182838485868788898B8C50
:1035C0008D8E8F919293959697999A9C9D9FA0A28C
:1035D000A3A5A7A8AAACAEB0B2B3B5B7B9BCBEC0DC
:1035E000C2C5C7C9CCCED1D4D7D9DCDFE2E6E9EC7D
:1035F000F0F3F7FAFE0000004FEA400C0CF1807C7B
:10360000BCF17E4F28BF7047B0F1C04000F03FB919
:1036100090EA010F0CEAD11348BF42F48072624570
:1036200038BF634507D213F47F0F16D080EA01003C
:1036300000F00040704710B500F0E3F8097EFC3E52
:1036400000F005B880EA010000F00040704780EA11
:10365000010000F0004000F01AB912F47F0F04BF1F
:103660000248704780EA010000F011B90000C07FF5
:1036700041000B0ED3F19E0208D950F400034FEA2B
:10368000032323FA02F048BF4042704710B500F010
:10369000B8F800BF49922480002070476FF00042C4
:1036A00082EA20007047000010F0004148BF40420D
:1036B000B0FA80F310FA03F2C3F19D030BD051EA84
:1036C000C35101EB1220530638BF704700F10100CF
:1036D00008BF20F001007047B0FA80F310FA03F23F
:1036E000C3F19D030AD0D90501EB1220530638BF60
:1036F000704700F1010008BF20F001007047000092
:103700004FF47F0C1CEAD0121EBF1CEAD11392EAC0
:103710000C0F93EA0C0F00F0478090EA010F48BFAE
:1037200042F480724FF0004C4CEA00204CEA012138
:1037300002EB0302A0FB0113A2F50002002918BF4F
:1037400043F001035B0028BF4FEA330342EB224200
:103750005FEA132C4CEBC2502EBFBCEB436FB2F5AB
:103760007C0F70474FEA036CBCF1004F08BF20F09C
:103770000100B2F57C0F38BF70470BD582F0FF0215
:1037800012F5803FC8BF704700F1C040D8BF00F0BD
:103790000040704700F5000C5FEA4C0C48BF7047D2
:1037A000B0F1C04000F073B890EA010F0CEAD113F9
:1037B00048BF42F48072624538BF634504D280EA54
:1037C000010000F00040704710B500F01AF800BF8B
:1037D0008900013E00F007B800F009B85FEA410C2B
:1037E0005FEA1C6C08D080EA010000F050B85FEA84
:1037F000400C5FEA1C6CF6D14FF00040A0F5800051
:1038000070470EF1020E2EF0030E5EF8044B2442B8
:1038100004D44FEA4102B2F17F4F11D84FEA40037E
:10382000B3F17F4F0CD80ED14FEAD07CB2F17F4F6D
:103830000CEB4C0C0CF1020C08BF4CEBD17C04E0FF
:103840004FF0080C01E04FEAD17C0CEB4C0324FA5A
:1038500003F404F00704B4F1040C06D20EEB840C5C
:10386000BDE810404CF0010C6047DFE80CF00708A1
:1038700002024FF00040A0F5800010BD0846420053
:1038800018BFD2F1807288BF00F0004010BDFF2148
:1038900041EAD050C005704780F0004090EA010F27
:1038A0007FF5C3AD81F0004100F007B890EA010F49
:1038B00048BF81F000413FF5B8AD421A04D882F00C
:1038C0000042A0EB020011444FEAD0524FF07F4C6F
:1038D0001CEA410FA2EBD15318BF9CEA026F4AD0F9
:1038E0004FF0004C4CEA00204CEA012121FA03FC85
:1038F000B0EB0C0C0FD412F0FE0F36D05FEA4C0088
:103900001DD5001240EBC25038BF70471CF03F0F6E
:1039100018BF70470BE0A2F101025FEA1C2040EBE8
:10392000C25038BF70471CF07F0F18BF7047C3F1FB
:103930002003994014BF401E20F00100704780080A
:103940004FEA122308BF7047B0FA80FCA2EB0C02CA
:10395000CCF1280C60FA0CF093EA122F04BF00EBB4
:10396000C25070474FEAC3707047130A5FEADC1019
:1039700008BF7047F6E79CEA026F04D010EA5C0FBC
:1039800008BF0020704710B5FFF73BFF40DFF63E51
:1039900081F0004070470CF00F03092B08BF08208E
:1039A00000F07F800A2B0BD0082B18BF704708BF90
:1039B0001CF0400F0AD04FF000004FF0000170479C
:1039C0001CF0400F18BF4FF0004070471CF0100F64
:1039D00008D020F0704300F07F4242EAD3014FEA62
:1039E0004370704700F0604021F07F4242EA0002DD
:1039F00001F07F4040EA727070474FF0FF0C4CF4CA
:103A0000E06C1CEA11531CBF9CEA030C9445C2BF36
:103A1000DA4201EB02517047002B0DD0BCF1000FD0
:103A20000FD0002A01F00041A4BF41F0E04141F075
:103A30007F614FF00000704701F000414FF000003F
:103A4000704750EA01334FF09B0C18BF4CF0806C6C
:103A50007FF416A970474FF0FF0212EAD0521CBF44
:103A600092F0FF038B42C2BFD14200EBC1507047BE
:103A7000002A0AD0002B0BD0002900F00040A4BF80
:103A800040F0FE4040F40000704700F000407047F6
:103A900043024FF00B0C18BF4CF0806C7FF420AD4C
:103AA00070471CF4801F11D01CF4E02F03D06FEA84
:103AB000CC31490070474FF04050EFF3008222F0C4
:103AC000704242EA000282F3008870474FF0000023
:103AD0007047010202030405060708090A0B0C0DD2
:103AE0000E0F10100000000000000000010203048F
:103AF0000607080900000000010203041C3B00083F
:103B0000000000206C00000028010008883B00082D
:103B10006C000020040800004401000800000000C0
:103B20000000C03F00000000000000000000000096
:103B30000000000000000000000000000000000085
:103B40000000000000000000000000000000000075
:103B50000000000000000000000000000000000065
:103B60000000000000000000000000000000000055
:103B70000000000000000000010000001000000034
:083B8000000000000024F40025
:04000005080000ED02
:00000001FF
